{
  "contractName": "BUlletinBoard",
  "abi": [
    {
      "inputs": [],
      "stateMutability": "nonpayable",
      "type": "constructor"
    },
    {
      "anonymous": false,
      "inputs": [
        {
          "indexed": false,
          "internalType": "address",
          "name": "writerAddress",
          "type": "address"
        },
        {
          "indexed": false,
          "internalType": "string",
          "name": "Name",
          "type": "string"
        },
        {
          "indexed": false,
          "internalType": "string",
          "name": "message",
          "type": "string"
        },
        {
          "indexed": false,
          "internalType": "bytes32",
          "name": "topic",
          "type": "bytes32"
        },
        {
          "indexed": false,
          "internalType": "uint256",
          "name": "postTime",
          "type": "uint256"
        },
        {
          "indexed": false,
          "internalType": "bytes",
          "name": "signature",
          "type": "bytes"
        }
      ],
      "name": "MessageInfo",
      "type": "event"
    },
    {
      "anonymous": false,
      "inputs": [
        {
          "indexed": true,
          "internalType": "address",
          "name": "previousOwner",
          "type": "address"
        },
        {
          "indexed": true,
          "internalType": "address",
          "name": "newOwner",
          "type": "address"
        }
      ],
      "name": "OwnershipTransferred",
      "type": "event"
    },
    {
      "inputs": [
        {
          "internalType": "uint256",
          "name": "",
          "type": "uint256"
        }
      ],
      "name": "messages",
      "outputs": [
        {
          "internalType": "address",
          "name": "writerAddress",
          "type": "address"
        },
        {
          "internalType": "string",
          "name": "Name",
          "type": "string"
        },
        {
          "internalType": "string",
          "name": "message",
          "type": "string"
        },
        {
          "internalType": "bytes32",
          "name": "topic",
          "type": "bytes32"
        },
        {
          "internalType": "uint256",
          "name": "postTime",
          "type": "uint256"
        },
        {
          "internalType": "bytes",
          "name": "signature",
          "type": "bytes"
        }
      ],
      "stateMutability": "view",
      "type": "function",
      "constant": true
    },
    {
      "inputs": [
        {
          "internalType": "uint256",
          "name": "",
          "type": "uint256"
        }
      ],
      "name": "nickName",
      "outputs": [
        {
          "internalType": "string",
          "name": "",
          "type": "string"
        }
      ],
      "stateMutability": "view",
      "type": "function",
      "constant": true
    },
    {
      "inputs": [],
      "name": "owner",
      "outputs": [
        {
          "internalType": "address",
          "name": "",
          "type": "address"
        }
      ],
      "stateMutability": "view",
      "type": "function",
      "constant": true
    },
    {
      "inputs": [],
      "name": "renounceOwnership",
      "outputs": [],
      "stateMutability": "nonpayable",
      "type": "function"
    },
    {
      "inputs": [
        {
          "internalType": "address",
          "name": "newOwner",
          "type": "address"
        }
      ],
      "name": "transferOwnership",
      "outputs": [],
      "stateMutability": "nonpayable",
      "type": "function"
    },
    {
      "inputs": [
        {
          "internalType": "uint256",
          "name": "",
          "type": "uint256"
        }
      ],
      "name": "writerAccounts",
      "outputs": [
        {
          "internalType": "address",
          "name": "",
          "type": "address"
        }
      ],
      "stateMutability": "view",
      "type": "function",
      "constant": true
    },
    {
      "inputs": [
        {
          "internalType": "string",
          "name": "_Name",
          "type": "string"
        },
        {
          "internalType": "string",
          "name": "_message",
          "type": "string"
        },
        {
          "internalType": "bytes32",
          "name": "_topic",
          "type": "bytes32"
        },
        {
          "internalType": "bytes",
          "name": "_signature",
          "type": "bytes"
        }
      ],
      "name": "postMessage",
      "outputs": [],
      "stateMutability": "nonpayable",
      "type": "function"
    },
    {
      "inputs": [],
      "name": "getNickName",
      "outputs": [
        {
          "internalType": "string[]",
          "name": "",
          "type": "string[]"
        }
      ],
      "stateMutability": "view",
      "type": "function",
      "constant": true
    },
    {
      "inputs": [],
      "name": "getWriterAccounts",
      "outputs": [
        {
          "internalType": "address[]",
          "name": "",
          "type": "address[]"
        }
      ],
      "stateMutability": "view",
      "type": "function",
      "constant": true
    },
    {
      "inputs": [
        {
          "internalType": "uint256",
          "name": "_index",
          "type": "uint256"
        }
      ],
      "name": "getWriterAccount",
      "outputs": [
        {
          "internalType": "address",
          "name": "",
          "type": "address"
        }
      ],
      "stateMutability": "view",
      "type": "function",
      "constant": true
    },
    {
      "inputs": [],
      "name": "getWriterCount",
      "outputs": [
        {
          "internalType": "uint256",
          "name": "",
          "type": "uint256"
        }
      ],
      "stateMutability": "view",
      "type": "function",
      "constant": true
    },
    {
      "inputs": [
        {
          "internalType": "uint256",
          "name": "_index",
          "type": "uint256"
        }
      ],
      "name": "getMessage",
      "outputs": [
        {
          "internalType": "address",
          "name": "",
          "type": "address"
        },
        {
          "internalType": "string",
          "name": "",
          "type": "string"
        },
        {
          "internalType": "string",
          "name": "",
          "type": "string"
        },
        {
          "internalType": "bytes32",
          "name": "",
          "type": "bytes32"
        },
        {
          "internalType": "uint256",
          "name": "",
          "type": "uint256"
        },
        {
          "internalType": "bytes",
          "name": "",
          "type": "bytes"
        }
      ],
      "stateMutability": "view",
      "type": "function",
      "constant": true
    },
    {
      "inputs": [
        {
          "internalType": "address",
          "name": "_writerAddress",
          "type": "address"
        }
      ],
      "name": "getMessageByAddress",
      "outputs": [
        {
          "internalType": "address[]",
          "name": "",
          "type": "address[]"
        },
        {
          "internalType": "string[]",
          "name": "",
          "type": "string[]"
        },
        {
          "internalType": "string[]",
          "name": "",
          "type": "string[]"
        },
        {
          "internalType": "bytes32[]",
          "name": "",
          "type": "bytes32[]"
        },
        {
          "internalType": "uint256[]",
          "name": "",
          "type": "uint256[]"
        },
        {
          "internalType": "bytes[]",
          "name": "",
          "type": "bytes[]"
        }
      ],
      "stateMutability": "view",
      "type": "function",
      "constant": true
    },
    {
      "inputs": [],
      "name": "getMessageCount",
      "outputs": [
        {
          "internalType": "uint256",
          "name": "",
          "type": "uint256"
        }
      ],
      "stateMutability": "view",
      "type": "function",
      "constant": true
    }
  ],
  "bytecode": "0x60806040523480156200001157600080fd5b5062000032620000266200003860201b60201c565b6200004060201b60201c565b62000104565b600033905090565b60008060009054906101000a900473ffffffffffffffffffffffffffffffffffffffff169050816000806101000a81548173ffffffffffffffffffffffffffffffffffffffff021916908373ffffffffffffffffffffffffffffffffffffffff1602179055508173ffffffffffffffffffffffffffffffffffffffff168173ffffffffffffffffffffffffffffffffffffffff167f8be0079c531659141344cd1fd0a4f28419497f9722a3daafe3b4186f6b6457e060405160405180910390a35050565b6129bc80620001146000396000f3fe608060405234801561001057600080fd5b50600436106100ea5760003560e01c80638ecc8b681161008c578063be655cee11610066578063be655cee1461025c578063da88100d1461028c578063f2fde38b146102bc578063f41aabf3146102d8576100ea565b80638ecc8b68146101ed578063996e0d761461020b578063b9144b8c14610227576100ea565b8063715018a6116100c8578063715018a614610172578063810cd3121461017c57806386f79edb1461019a5780638da5cb5b146101cf576100ea565b80630d80fefd146100ef5780631ed03820146101245780633193391614610154575b600080fd5b6101096004803603810190610104919061187f565b6102f6565b60405161011b969594939291906119fa565b60405180910390f35b61013e6004803603810190610139919061187f565b6104fa565b60405161014b9190611a70565b60405180910390f35b61015c610589565b6040516101699190611a8b565b60405180910390f35b61017a610596565b005b6101846105aa565b6040516101919190611bb2565b60405180910390f35b6101b460048036038101906101af919061187f565b610683565b6040516101c6969594939291906119fa565b60405180910390f35b6101d76108ef565b6040516101e49190611a70565b60405180910390f35b6101f5610918565b6040516102029190611a8b565b60405180910390f35b61022560048036038101906102209190611dd6565b610925565b005b610241600480360381019061023c9190611ebd565b610dc5565b60405161025396959493929190612230565b60405180910390f35b6102766004803603810190610271919061187f565b6114ef565b6040516102839190611a70565b60405180910390f35b6102a660048036038101906102a1919061187f565b61152e565b6040516102b391906122bb565b60405180910390f35b6102d660048036038101906102d19190611ebd565b6115da565b005b6102e061165d565b6040516102ed91906122dd565b60405180910390f35b6003818154811061030657600080fd5b90600052602060002090600602016000915090508060000160009054906101000a900473ffffffffffffffffffffffffffffffffffffffff169080600101805461034f9061232e565b80601f016020809104026020016040519081016040528092919081815260200182805461037b9061232e565b80156103c85780601f1061039d576101008083540402835291602001916103c8565b820191906000526020600020905b8154815290600101906020018083116103ab57829003601f168201915b5050505050908060020180546103dd9061232e565b80601f01602080910402602001604051908101604052809291908181526020018280546104099061232e565b80156104565780601f1061042b57610100808354040283529160200191610456565b820191906000526020600020905b81548152906001019060200180831161043957829003601f168201915b5050505050908060030154908060040154908060050180546104779061232e565b80601f01602080910402602001604051908101604052809291908181526020018280546104a39061232e565b80156104f05780601f106104c5576101008083540402835291602001916104f0565b820191906000526020600020905b8154815290600101906020018083116104d357829003601f168201915b5050505050905086565b60006001805490508210610543576040517f08c379a000000000000000000000000000000000000000000000000000000000815260040161053a906123ab565b60405180910390fd5b60018281548110610557576105566123cb565b5b9060005260206000200160009054906101000a900473ffffffffffffffffffffffffffffffffffffffff169050919050565b6000600380549050905090565b61059e6116eb565b6105a86000611769565b565b60606002805480602002602001604051908101604052809291908181526020016000905b8282101561067a5783829060005260206000200180546105ed9061232e565b80601f01602080910402602001604051908101604052809291908181526020018280546106199061232e565b80156106665780601f1061063b57610100808354040283529160200191610666565b820191906000526020600020905b81548152906001019060200180831161064957829003601f168201915b5050505050815260200190600101906105ce565b50505050905090565b6000606080600080606060038054905087106106d4576040517f08c379a00000000000000000000000000000000000000000000000000000000081526004016106cb906123ab565b60405180910390fd5b6000600388815481106106ea576106e96123cb565b5b906000526020600020906006020190508060000160009054906101000a900473ffffffffffffffffffffffffffffffffffffffff16816001018260020183600301548460040154856005018480546107419061232e565b80601f016020809104026020016040519081016040528092919081815260200182805461076d9061232e565b80156107ba5780601f1061078f576101008083540402835291602001916107ba565b820191906000526020600020905b81548152906001019060200180831161079d57829003601f168201915b505050505094508380546107cd9061232e565b80601f01602080910402602001604051908101604052809291908181526020018280546107f99061232e565b80156108465780601f1061081b57610100808354040283529160200191610846565b820191906000526020600020905b81548152906001019060200180831161082957829003601f168201915b505050505093508080546108599061232e565b80601f01602080910402602001604051908101604052809291908181526020018280546108859061232e565b80156108d25780601f106108a7576101008083540402835291602001916108d2565b820191906000526020600020905b8154815290600101906020018083116108b557829003601f168201915b505050505090509650965096509650965096505091939550919395565b60008060009054906101000a900473ffffffffffffffffffffffffffffffffffffffff16905090565b6000600180549050905090565b6000606060005b600380549050811015610a7d573373ffffffffffffffffffffffffffffffffffffffff1660038281548110610964576109636123cb565b5b906000526020600020906006020160000160009054906101000a900473ffffffffffffffffffffffffffffffffffffffff1673ffffffffffffffffffffffffffffffffffffffff1603610a6a57600381815481106109c5576109c46123cb565b5b906000526020600020906006020160010180546109e19061232e565b80601f0160208091040260200160405190810160405280929190818152602001828054610a0d9061232e565b8015610a5a5780601f10610a2f57610100808354040283529160200191610a5a565b820191906000526020600020905b815481529060010190602001808311610a3d57829003601f168201915b5050505050915060019250610a7d565b8080610a7590612429565b91505061092c565b5081610c6e576001339080600181540180825580915050600190039060005260206000200160009091909190916101000a81548173ffffffffffffffffffffffffffffffffffffffff021916908373ffffffffffffffffffffffffffffffffffffffff160217905550600286908060018154018082558091505060019003906000526020600020016000909190919091509081610b1a919061261d565b5060036040518060c001604052803373ffffffffffffffffffffffffffffffffffffffff16815260200188815260200187815260200186815260200142815260200185815250908060018154018082558091505060019003906000526020600020906006020160009091909190915060008201518160000160006101000a81548173ffffffffffffffffffffffffffffffffffffffff021916908373ffffffffffffffffffffffffffffffffffffffff1602179055506020820151816001019081610be5919061261d565b506040820151816002019081610bfb919061261d565b50606082015181600301556080820151816004015560a0820151816005019081610c25919061274a565b5050507fc52e2c0a3d33e2c661f8db91d606b4f93835becd9a5da71cb9d754a6d8d6fdc3338787874288604051610c61969594939291906119fa565b60405180910390a1610dbd565b60036040518060c001604052803373ffffffffffffffffffffffffffffffffffffffff16815260200183815260200187815260200186815260200142815260200185815250908060018154018082558091505060019003906000526020600020906006020160009091909190915060008201518160000160006101000a81548173ffffffffffffffffffffffffffffffffffffffff021916908373ffffffffffffffffffffffffffffffffffffffff1602179055506020820151816001019081610d38919061261d565b506040820151816002019081610d4e919061261d565b50606082015181600301556080820151816004015560a0820151816005019081610d78919061274a565b5050507fc52e2c0a3d33e2c661f8db91d606b4f93835becd9a5da71cb9d754a6d8d6fdc3338287874288604051610db4969594939291906119fa565b60405180910390a15b505050505050565b6060806060806060806000805b600380549050811015610e79578873ffffffffffffffffffffffffffffffffffffffff1660038281548110610e0a57610e096123cb565b5b906000526020600020906006020160000160009054906101000a900473ffffffffffffffffffffffffffffffffffffffff1673ffffffffffffffffffffffffffffffffffffffff1603610e66578180610e6290612429565b9250505b8080610e7190612429565b915050610dd2565b5060008167ffffffffffffffff811115610e9657610e95611bde565b5b604051908082528060200260200182016040528015610ec45781602001602082028036833780820191505090505b50905060008267ffffffffffffffff811115610ee357610ee2611bde565b5b604051908082528060200260200182016040528015610f1657816020015b6060815260200190600190039081610f015790505b50905060008367ffffffffffffffff811115610f3557610f34611bde565b5b604051908082528060200260200182016040528015610f6857816020015b6060815260200190600190039081610f535790505b50905060008467ffffffffffffffff811115610f8757610f86611bde565b5b604051908082528060200260200182016040528015610fb55781602001602082028036833780820191505090505b50905060008567ffffffffffffffff811115610fd457610fd3611bde565b5b6040519080825280602002602001820160405280156110025781602001602082028036833780820191505090505b50905060008667ffffffffffffffff81111561102157611020611bde565b5b60405190808252806020026020018201604052801561105457816020015b606081526020019060019003908161103f5790505b50905060008088146114ab5760005b60038054905081101561148b578f73ffffffffffffffffffffffffffffffffffffffff166003828154811061109b5761109a6123cb565b5b906000526020600020906006020160000160009054906101000a900473ffffffffffffffffffffffffffffffffffffffff1673ffffffffffffffffffffffffffffffffffffffff160361147857600381815481106110fc576110fb6123cb565b5b906000526020600020906006020160000160009054906101000a900473ffffffffffffffffffffffffffffffffffffffff16888381518110611141576111406123cb565b5b602002602001019073ffffffffffffffffffffffffffffffffffffffff16908173ffffffffffffffffffffffffffffffffffffffff16815250506003818154811061118f5761118e6123cb565b5b906000526020600020906006020160010180546111ab9061232e565b80601f01602080910402602001604051908101604052809291908181526020018280546111d79061232e565b80156112245780601f106111f957610100808354040283529160200191611224565b820191906000526020600020905b81548152906001019060200180831161120757829003601f168201915b505050505087838151811061123c5761123b6123cb565b5b60200260200101819052506003818154811061125b5761125a6123cb565b5b906000526020600020906006020160020180546112779061232e565b80601f01602080910402602001604051908101604052809291908181526020018280546112a39061232e565b80156112f05780601f106112c5576101008083540402835291602001916112f0565b820191906000526020600020905b8154815290600101906020018083116112d357829003601f168201915b5050505050868381518110611308576113076123cb565b5b602002602001018190525060038181548110611327576113266123cb565b5b90600052602060002090600602016003015485838151811061134c5761134b6123cb565b5b6020026020010181815250506003818154811061136c5761136b6123cb565b5b906000526020600020906006020160040154848381518110611391576113906123cb565b5b602002602001018181525050600381815481106113b1576113b06123cb565b5b906000526020600020906006020160050180546113cd9061232e565b80601f01602080910402602001604051908101604052809291908181526020018280546113f99061232e565b80156114465780601f1061141b57610100808354040283529160200191611446565b820191906000526020600020905b81548152906001019060200180831161142957829003601f168201915b505050505083838151811061145e5761145d6123cb565b5b6020026020010181905250818061147490612429565b9250505b808061148390612429565b915050611063565b508686868686869d509d509d509d509d509d5050505050505050506114e6565b6040517f08c379a00000000000000000000000000000000000000000000000000000000081526004016114dd90612868565b60405180910390fd5b91939550919395565b600181815481106114ff57600080fd5b906000526020600020016000915054906101000a900473ffffffffffffffffffffffffffffffffffffffff1681565b6002818154811061153e57600080fd5b9060005260206000200160009150905080546115599061232e565b80601f01602080910402602001604051908101604052809291908181526020018280546115859061232e565b80156115d25780601f106115a7576101008083540402835291602001916115d2565b820191906000526020600020905b8154815290600101906020018083116115b557829003601f168201915b505050505081565b6115e26116eb565b600073ffffffffffffffffffffffffffffffffffffffff168173ffffffffffffffffffffffffffffffffffffffff1603611651576040517f08c379a0000000000000000000000000000000000000000000000000000000008152600401611648906128fa565b60405180910390fd5b61165a81611769565b50565b606060018054806020026020016040519081016040528092919081815260200182805480156116e157602002820191906000526020600020905b8160009054906101000a900473ffffffffffffffffffffffffffffffffffffffff1673ffffffffffffffffffffffffffffffffffffffff1681526020019060010190808311611697575b5050505050905090565b6116f361182d565b73ffffffffffffffffffffffffffffffffffffffff166117116108ef565b73ffffffffffffffffffffffffffffffffffffffff1614611767576040517f08c379a000000000000000000000000000000000000000000000000000000000815260040161175e90612966565b60405180910390fd5b565b60008060009054906101000a900473ffffffffffffffffffffffffffffffffffffffff169050816000806101000a81548173ffffffffffffffffffffffffffffffffffffffff021916908373ffffffffffffffffffffffffffffffffffffffff1602179055508173ffffffffffffffffffffffffffffffffffffffff168173ffffffffffffffffffffffffffffffffffffffff167f8be0079c531659141344cd1fd0a4f28419497f9722a3daafe3b4186f6b6457e060405160405180910390a35050565b600033905090565b6000604051905090565b600080fd5b600080fd5b6000819050919050565b61185c81611849565b811461186757600080fd5b50565b60008135905061187981611853565b92915050565b6000602082840312156118955761189461183f565b5b60006118a38482850161186a565b91505092915050565b600073ffffffffffffffffffffffffffffffffffffffff82169050919050565b60006118d7826118ac565b9050919050565b6118e7816118cc565b82525050565b600081519050919050565b600082825260208201905092915050565b60005b8381101561192757808201518184015260208101905061190c565b60008484015250505050565b6000601f19601f8301169050919050565b600061194f826118ed565b61195981856118f8565b9350611969818560208601611909565b61197281611933565b840191505092915050565b6000819050919050565b6119908161197d565b82525050565b61199f81611849565b82525050565b600081519050919050565b600082825260208201905092915050565b60006119cc826119a5565b6119d681856119b0565b93506119e6818560208601611909565b6119ef81611933565b840191505092915050565b600060c082019050611a0f60008301896118de565b8181036020830152611a218188611944565b90508181036040830152611a358187611944565b9050611a446060830186611987565b611a516080830185611996565b81810360a0830152611a6381846119c1565b9050979650505050505050565b6000602082019050611a8560008301846118de565b92915050565b6000602082019050611aa06000830184611996565b92915050565b600081519050919050565b600082825260208201905092915050565b6000819050602082019050919050565b600082825260208201905092915050565b6000611aee826118ed565b611af88185611ad2565b9350611b08818560208601611909565b611b1181611933565b840191505092915050565b6000611b288383611ae3565b905092915050565b6000602082019050919050565b6000611b4882611aa6565b611b528185611ab1565b935083602082028501611b6485611ac2565b8060005b85811015611ba05784840389528151611b818582611b1c565b9450611b8c83611b30565b925060208a01995050600181019050611b68565b50829750879550505050505092915050565b60006020820190508181036000830152611bcc8184611b3d565b905092915050565b600080fd5b600080fd5b7f4e487b7100000000000000000000000000000000000000000000000000000000600052604160045260246000fd5b611c1682611933565b810181811067ffffffffffffffff82111715611c3557611c34611bde565b5b80604052505050565b6000611c48611835565b9050611c548282611c0d565b919050565b600067ffffffffffffffff821115611c7457611c73611bde565b5b611c7d82611933565b9050602081019050919050565b82818337600083830152505050565b6000611cac611ca784611c59565b611c3e565b905082815260208101848484011115611cc857611cc7611bd9565b5b611cd3848285611c8a565b509392505050565b600082601f830112611cf057611cef611bd4565b5b8135611d00848260208601611c99565b91505092915050565b611d128161197d565b8114611d1d57600080fd5b50565b600081359050611d2f81611d09565b92915050565b600067ffffffffffffffff821115611d5057611d4f611bde565b5b611d5982611933565b9050602081019050919050565b6000611d79611d7484611d35565b611c3e565b905082815260208101848484011115611d9557611d94611bd9565b5b611da0848285611c8a565b509392505050565b600082601f830112611dbd57611dbc611bd4565b5b8135611dcd848260208601611d66565b91505092915050565b60008060008060808587031215611df057611def61183f565b5b600085013567ffffffffffffffff811115611e0e57611e0d611844565b5b611e1a87828801611cdb565b945050602085013567ffffffffffffffff811115611e3b57611e3a611844565b5b611e4787828801611cdb565b9350506040611e5887828801611d20565b925050606085013567ffffffffffffffff811115611e7957611e78611844565b5b611e8587828801611da8565b91505092959194509250565b611e9a816118cc565b8114611ea557600080fd5b50565b600081359050611eb781611e91565b92915050565b600060208284031215611ed357611ed261183f565b5b6000611ee184828501611ea8565b91505092915050565b600081519050919050565b600082825260208201905092915050565b6000819050602082019050919050565b611f1f816118cc565b82525050565b6000611f318383611f16565b60208301905092915050565b6000602082019050919050565b6000611f5582611eea565b611f5f8185611ef5565b9350611f6a83611f06565b8060005b83811015611f9b578151611f828882611f25565b9750611f8d83611f3d565b925050600181019050611f6e565b5085935050505092915050565b600081519050919050565b600082825260208201905092915050565b6000819050602082019050919050565b611fdd8161197d565b82525050565b6000611fef8383611fd4565b60208301905092915050565b6000602082019050919050565b600061201382611fa8565b61201d8185611fb3565b935061202883611fc4565b8060005b838110156120595781516120408882611fe3565b975061204b83611ffb565b92505060018101905061202c565b5085935050505092915050565b600081519050919050565b600082825260208201905092915050565b6000819050602082019050919050565b61209b81611849565b82525050565b60006120ad8383612092565b60208301905092915050565b6000602082019050919050565b60006120d182612066565b6120db8185612071565b93506120e683612082565b8060005b838110156121175781516120fe88826120a1565b9750612109836120b9565b9250506001810190506120ea565b5085935050505092915050565b600081519050919050565b600082825260208201905092915050565b6000819050602082019050919050565b600082825260208201905092915050565b600061216c826119a5565b6121768185612150565b9350612186818560208601611909565b61218f81611933565b840191505092915050565b60006121a68383612161565b905092915050565b6000602082019050919050565b60006121c682612124565b6121d0818561212f565b9350836020820285016121e285612140565b8060005b8581101561221e57848403895281516121ff858261219a565b945061220a836121ae565b925060208a019950506001810190506121e6565b50829750879550505050505092915050565b600060c082019050818103600083015261224a8189611f4a565b9050818103602083015261225e8188611b3d565b905081810360408301526122728187611b3d565b905081810360608301526122868186612008565b9050818103608083015261229a81856120c6565b905081810360a08301526122ae81846121bb565b9050979650505050505050565b600060208201905081810360008301526122d58184611944565b905092915050565b600060208201905081810360008301526122f78184611f4a565b905092915050565b7f4e487b7100000000000000000000000000000000000000000000000000000000600052602260045260246000fd5b6000600282049050600182168061234657607f821691505b602082108103612359576123586122ff565b5b50919050565b7f496e76616c696420696e64657800000000000000000000000000000000000000600082015250565b6000612395600d836118f8565b91506123a08261235f565b602082019050919050565b600060208201905081810360008301526123c481612388565b9050919050565b7f4e487b7100000000000000000000000000000000000000000000000000000000600052603260045260246000fd5b7f4e487b7100000000000000000000000000000000000000000000000000000000600052601160045260246000fd5b600061243482611849565b91507fffffffffffffffffffffffffffffffffffffffffffffffffffffffffffffffff8203612466576124656123fa565b5b600182019050919050565b60008190508160005260206000209050919050565b60006020601f8301049050919050565b600082821b905092915050565b6000600883026124d37fffffffffffffffffffffffffffffffffffffffffffffffffffffffffffffffff82612496565b6124dd8683612496565b95508019841693508086168417925050509392505050565b6000819050919050565b600061251a61251561251084611849565b6124f5565b611849565b9050919050565b6000819050919050565b612534836124ff565b61254861254082612521565b8484546124a3565b825550505050565b600090565b61255d612550565b61256881848461252b565b505050565b5b8181101561258c57612581600082612555565b60018101905061256e565b5050565b601f8211156125d1576125a281612471565b6125ab84612486565b810160208510156125ba578190505b6125ce6125c685612486565b83018261256d565b50505b505050565b600082821c905092915050565b60006125f4600019846008026125d6565b1980831691505092915050565b600061260d83836125e3565b9150826002028217905092915050565b612626826118ed565b67ffffffffffffffff81111561263f5761263e611bde565b5b612649825461232e565b612654828285612590565b600060209050601f8311600181146126875760008415612675578287015190505b61267f8582612601565b8655506126e7565b601f19841661269586612471565b60005b828110156126bd57848901518255600182019150602085019450602081019050612698565b868310156126da57848901516126d6601f8916826125e3565b8355505b6001600288020188555050505b505050505050565b60008190508160005260206000209050919050565b601f82111561274557612716816126ef565b61271f84612486565b8101602085101561272e578190505b61274261273a85612486565b83018261256d565b50505b505050565b612753826119a5565b67ffffffffffffffff81111561276c5761276b611bde565b5b612776825461232e565b612781828285612704565b600060209050601f8311600181146127b457600084156127a2578287015190505b6127ac8582612601565b865550612814565b601f1984166127c2866126ef565b60005b828110156127ea578489015182556001820191506020850194506020810190506127c5565b868310156128075784890151612803601f8916826125e3565b8355505b6001600288020188555050505b505050505050565b7f4d657373616765206e6f7420666f756e64000000000000000000000000000000600082015250565b60006128526011836118f8565b915061285d8261281c565b602082019050919050565b6000602082019050818103600083015261288181612845565b9050919050565b7f4f776e61626c653a206e6577206f776e657220697320746865207a65726f206160008201527f6464726573730000000000000000000000000000000000000000000000000000602082015250565b60006128e46026836118f8565b91506128ef82612888565b604082019050919050565b60006020820190508181036000830152612913816128d7565b9050919050565b7f4f776e61626c653a2063616c6c6572206973206e6f7420746865206f776e6572600082015250565b60006129506020836118f8565b915061295b8261291a565b602082019050919050565b6000602082019050818103600083015261297f81612943565b905091905056fea2646970667358221220a7fcf49c98f5c7a3c93d07f6b167f206c96c8f1f0b4cbc8b2b792c0498cf93a664736f6c63430008130033",
  "immutableReferences": {},
  "source": "// SPDX-License-Identifier: UNLICENSED\r\n\r\npragma solidity ^0.8.19;\r\nimport \"@openzeppelin/contracts/access/Ownable.sol\";\r\n\r\ncontract BUlletinBoard is Ownable {\r\n\r\n    struct Message {\r\n        address writerAddress;\r\n        string Name;\r\n        string message;\r\n        bytes32 topic;\r\n        uint256 postTime;\r\n        bytes signature;\r\n\r\n    }\r\n\r\n        address[] public writerAccounts;\r\n        string[] public nickName;\r\n        Message[] public messages;\r\n        constructor(){\r\n\r\n    }\r\n\r\n\r\n    event MessageInfo(\r\n        address writerAddress,\r\n        string Name,\r\n        string message,\r\n        bytes32 topic,\r\n        uint256 postTime,\r\n        bytes signature\r\n    );\r\n\r\n\r\n    function postMessage(string memory _Name, string memory _message, bytes32 _topic , bytes memory _signature) public {\r\n        bool isDuplicate = false;\r\n        string memory writerName;\r\n\r\n        \r\n        for (uint256 i = 0; i < messages.length ; i++) {\r\n            if (messages[i].writerAddress == msg.sender) {\r\n                writerName = messages[i].Name;\r\n                isDuplicate = true;\r\n                break;\r\n            }\r\n        }\r\n\r\n        if (!isDuplicate) {\r\n            writerAccounts.push(msg.sender);\r\n            nickName.push(_Name);\r\n            messages.push(Message(msg.sender, _Name, _message, _topic, block.timestamp ,_signature));\r\n            emit MessageInfo(msg.sender, _Name, _message, _topic, block.timestamp,_signature);\r\n            }\r\n        else{\r\n            messages.push(Message(msg.sender, writerName, _message, _topic, block.timestamp ,_signature));\r\n            emit MessageInfo(msg.sender, writerName, _message, _topic, block.timestamp,_signature);\r\n        }\r\n        \r\n    }\r\n\r\n    function getNickName() view public returns (string[] memory) {\r\n        return (nickName);\r\n    }\r\n\r\n    function getWriterAccounts() view public returns (address[] memory ) {\r\n        return (writerAccounts );\r\n    }\r\n\r\n    function getWriterAccount(uint256 _index) view public returns (address) {\r\n        require(_index < writerAccounts.length, \"Invalid index\");\r\n        return writerAccounts[_index];\r\n    }\r\n\r\n    function getWriterCount() view public returns (uint) {\r\n        return writerAccounts.length;\r\n    }\r\n\r\n    function getMessage(uint256 _index) view public returns (address, string memory, string memory, bytes32, uint256 , bytes memory) {\r\n        require(_index < messages.length, \"Invalid index\");\r\n        Message storage msgInfo = messages[_index];\r\n        return (msgInfo.writerAddress, msgInfo.Name, msgInfo.message, msgInfo.topic, msgInfo.postTime , msgInfo.signature);\r\n    }\r\n\r\n\r\n\r\n    function getMessageByAddress(address _writerAddress) view public returns (address[] memory, string[] memory, string[] memory, bytes32[] memory, uint256[] memory , bytes[] memory) {\r\n        uint256 count = 0;\r\n    \r\n        for (uint256 i = 0; i < messages.length; i++) {\r\n            if (messages[i].writerAddress == _writerAddress) {\r\n            count++;\r\n            }\r\n        }\r\n\r\n        address[] memory writerAddresses = new address[](count);\r\n        string[] memory names = new string[](count);\r\n        string[] memory messagess = new string[](count);\r\n        bytes32[] memory topics = new bytes32[](count);\r\n        uint256[] memory postTimes = new uint256[](count);\r\n        bytes[] memory signature = new bytes[](count);\r\n\r\n        uint256 currentIndex = 0;\r\n\r\n        if(count!=0){\r\n            for (uint256 i = 0; i < messages.length; i++) {\r\n                if (messages[i].writerAddress == _writerAddress) {\r\n                    writerAddresses[currentIndex] = messages[i].writerAddress;\r\n                    names[currentIndex] = messages[i].Name;\r\n                    messagess[currentIndex] = messages[i].message;\r\n                    topics[currentIndex] = messages[i].topic;\r\n                    postTimes[currentIndex] = messages[i].postTime;\r\n                    signature[currentIndex] = messages[i].signature;\r\n                    currentIndex++;\r\n                }\r\n            }\r\n        return (writerAddresses, names, messagess, topics, postTimes , signature);\r\n        }else{\r\n            revert(\"Message not found\");\r\n        }\r\n    \r\n    }\r\n\r\n\r\n    function getMessageCount() view public returns (uint) {\r\n        return messages.length;\r\n    }\r\n}\r\n",
  "sourcePath": "C:\\Users\\ugend\\Desktop\\Bulletin_Board\\contracts\\BulletinBoard.sol",
  "compiler": {
    "name": "solc",
    "version": "0.8.19+commit.7dd6d404.Emscripten.clang"
  },
  "schemaVersion": "3.4.16",
  "updatedAt": "2023-11-10T02:29:42.341Z",
  "networkType": "ethereum",
  "devdoc": {
    "kind": "dev",
    "methods": {
      "owner()": {
        "details": "Returns the address of the current owner."
      },
      "renounceOwnership()": {
        "details": "Leaves the contract without owner. It will not be possible to call `onlyOwner` functions. Can only be called by the current owner. NOTE: Renouncing ownership will leave the contract without an owner, thereby disabling any functionality that is only available to the owner."
      },
      "transferOwnership(address)": {
        "details": "Transfers ownership of the contract to a new account (`newOwner`). Can only be called by the current owner."
      }
    },
    "version": 1
  },
  "userdoc": {
    "kind": "user",
    "methods": {},
    "version": 1
  }
}